:04000000020E1422B6
:10000B00020F09900015E0FCA3E0FDA3E0FEA3E0C6
:02001B00FF22C2
:10002300021044A2AF9204C2AFEF14601814602010
:100033001460281460302404703575C7AA75C75539
:10004300439606802A75C7AA75C755439607801F2E
:1000530075C7AA75C7555396F8801475C7AA75C78F
:1000630055439604800975C7AA75C755439602A2DE
:040073000492AF2222
:10007B00020FDCEC4D6011E8497017ED33EC3304E3
:10008B00600DE4FCFFFEFD22E933E8330470F80257
:10009B0002CE12029958046009E4CC248150062840
:1000AB0050090202D82840030202D5C0E0EB4A7087
:1000BB0044B98006D0E0FB0202C4EF4E701CBD8039
:1000CB0008EBFFEAFEE9FD80EBE98DF0A4FEE5F01D
:1000DB00020167E9CDF9EAFEEBFFEF89F0A4FCE53D
:1000EB00F0CE89F0A42EFFE435F0CD89F0A42DFEDF
:1000FB00E435F08067EF4E7005BD80D780C3EF8B82
:10010B00F0A4ACF0EE8BF0A42CFCE435F0F8EF8A05
:10011B00F0A42CE5F038FCE433CB8DF0A42CFCE5FB
:10012B00F03BF8EE8AF0A42CFCE5F038F8E433CF82
:10013B0089F0A42CFCE5F038CF3400CE89F0A42F45
:10014B00FFE5F03EFEE433C98DF0A42EFEE5F03959
:10015B00CD8AF0A42FFFE5F03EFEE43DFD33D0E069
:10016B00FB50070BBB000F0202D8EC2CFCEF33FF4C
:10017B00EE33FEED33FD0202B00202D8EC5D0460FB
:10018B0005E8590470030202CE120299580460F676
:10019B00EC4860F2EC7004FDFEFF22C860DB2481AA
:1001AB00C85009C398600250060202D59850CAF590
:1001BB0082E9294B4A7005AB820202C475F0007CC0
:1001CB001A7880C3EF9BEE9AED99400DC3EF9BFF1E
:1001DB00EE9AFEED99FDE842F0DC23ACF0D0E0FFA7
:1001EB00D0E0FED0E0FDAB8220E7101BEB60BAEC59
:1001FB002CFCEF33FFEE33FEED33FD0202B0E803D0
:10020B00F830E705C0F075F000EF2FFFEE33FEED91
:10021B0033FD40B830E7C280AA75F020800E75F030
:10022B0010800575F0087D007E007F003392D5307D
:10023B00D5031207A1EC334010EF33FFEE33FEED85
:10024B0033FDEC33FCD5F0ED22E5F0247EA2D51383
:10025B00CC92E7CDCEFF22EDD2E7CD33EC3392D566
:10026B0024814006E4FFFEFDFC22FCE4CFCECDCC86
:10027B0024E0501174FF80EDC3CC13CCCD13CDCE45
:10028B0013CECF13CF0470F030D5DE0207A1E9D225
:10029B00E7C933E833F892D5EDD2E7CD33EC33FC35
:1002AB005002B2D522EC30E7100FBF000C0EBE008F
:1002BB00080DBD00040BEB6014A2D5EB13FCED9203
:1002CB00E7FD2274FFFCFDFEFF22E480F8A2D5744B
:1002DB00FF13FC7D80E480EFF920E73624F950030F
:1002EB007907E4F42402FBE582158270021583DBA7
:1002FB00F6E024FB501BE96014E4F0E582158270F4
:10030B00021583E004F0B40A08E4F0D9EE7401F0AE
:10031B000A22C2D522ED33EC3392D5FA602AB4FF10
:10032B0033EDC2E77BFF60067A037945E4227A035B
:10033B00794E20D5047A037949224E614E002B4920
:10034B004E46002D494E4600E47A08F0A3DAFC7BBA
:10035B0000740722C083C082ECC0E0EDC0E0EEC0A9
:10036B00E0EFC0E0EA75F010A4CAABF075F04DA455
:10037B002BFBE435F0FCEA2410FAEB34C5FBEC3430
:10038B00D9FCEDC2E7FF75F056A4F42411C5F0F4C7
:10039B0034C58FF0A42AE5F03BE43CF020E71412BF
:1003AB00054DD0E0FFD0E0FED0E0FDD0E0FC120127
:1003BB00878014F40412054DD0E0FFD0E0FED0E0AE
:1003CB00FDD0E0FC12007ED082D083E0FAEDD2E7C4
:1003DB00CD33EC332482FBE4C3CF33CFCE33CECD3E
:1003EB0033CD33DBF37B0775F00A846004F0A31B7A
:1003FB000AE5F0F0A38FF0740AA4FFACF08EF07452
:10040B000AA42CFEACF050010C8DF0740AA42CFD48
:10041B00E435F0F0A3DBDE7407220202CEE8648041
:10042B00F8E933E83360110460F0ED33EC33700915
:10043B00E8FCE9FDEAFEEBFF220460DED3EB9FEA6A
:10044B009EE99DE8C2E78CF0C2F795F0400CE8CC32
:10045B00F8E9CDF9EACEFAEBCFFB12029985D0F091
:10046B005804700320D5B3E80470075002B2D502CC
:10047B0002D892D5EC0460F7E4CCC0E0C398F860E6
:10048B003B94186008400DD0E0FB0202B0E4FBFA8D
:10049B00C9FC8028E830E406E4C9FBE4CAFCE83078
:1004AB00E305E4C9CACBFCE854076010F8C3E913B1
:1004BB00F9EA13FAEB13FBEC13FCD8F130F52FC36D
:1004CB00E49CFCEF9BFFEE9AFEED99FDD0E0FBEF79
:1004DB004E4D4C701222DB030202D5EC2CFCEF3399
:1004EB00FFEE33FEED33FDED30E7EB0202B0EF2B09
:1004FB00FFEE3AFEED39FDD0E0FB50130BBB0003D2
:10050B000202D8ED13FDEE13FEEF13FFEC13FC020A
:10051B0002B03F8000004120000042C80000447A36
:10052B000000461C400047C35000497424004B1880
:10053B0096804CBEBC205A0E1BCA6753C21C749DBE
:10054B00C5AEFB60065407601C232312057BEB54DE
:10055B0038600912056712057612007EECF8EDF98A
:10056B00EEFAEFCB22EB12057680F1543803241C04
:10057B0090051DFE93FC0EEE93FD0EEE930ECE93A7
:10058B00FF22BB010689828A83E0225002E722BB4D
:10059B00FE02E32289828A83E49322BB010CE5826B
:1005AB0029F582E5833AF583E0225006E92582F8A6
:1005BB00E622BBFE06E92582F8E222E58229F582D6
:1005CB00E5833AF583E49322BB010689828A83F0A3
:1005DB00225002F722BBFE01F322F8BB010DE5828C
:1005EB0029F582E5833AF583E8F0225006E9258266
:1005FB00C8F622BBFE05E92582C8F222EF8DF0A4D6
:10060B00A8F0CF8CF0A428CE8DF0A42EFE22BC0037
:10061B000BBE0029EF8DF084FFADF022E4CCF87512
:10062B00F008EF2FFFEE33FEEC33FCEE9DEC984021
:10063B0005FCEE9DFE0FD5F0E9E4CEFD22EDF8F5BD
:10064B00F0EE8420D21CFEADF075F008EF2FFFED1D
:10065B0033FD4007985006D5F0F222C398FD0FD515
:10066B00F0EA22A3F8E0C5F025F0F0E582158270E0
:10067B00021583E0C838F0E822E88FF0A4CC8BF0A9
:10068B00A42CFCE98EF0A42CFC8AF0EDA42CFCEA43
:10069B008EF0A4CDA8F08BF0A42DCC3825F0FDE97D
:1006AB008FF0A42CCD35F0FCEB8EF0A4FEA9F0EB73
:1006BB008FF0A4CFC5F02ECD39FEE43CFCEAA42D7F
:1006CB00CE35F0FDE43CFC2275F008758200EF2F6F
:1006DB00FFEE33FECD33CDCC33CCC58233C5829BFD
:1006EB00ED9AEC99E58298400CF582EE9BFEED9A23
:1006FB00FDEC99FC0FD5F0D6E4CEFBE4CDFAE4CCBF
:10070B00F9A88222B800C1B90059BA002DEC8BF0C0
:10071B0084CFCECDFCE5F0CBF97818EF2FFFEE337D
:10072B00FEED33FDEC33FCEB33FB10D703994004A8
:10073B00EB99FB0FD8E5E4F9FA227818EF2FFFEECF
:10074B0033FEED33FDEC33FCC933C910D7059BE900
:10075B009A4007EC9BFCE99AF90FD8E0E4C9FAE45C
:10076B00CCFB2275F010EF2FFFEE33FEED33FDCCFB
:10077B0033CCC833C810D7079BEC9AE899400AEDE5
:10078B009BFDEC9AFCE899F80FD5F0DAE4CDFBE48D
:10079B00CCFAE4C8F922C3E49FFFE49EFEE49DFD7E
:1007AB00E49CFC22EB9FF5F0EA9E42F0E99D42F0BF
:1007BB00E89C45F022E8600FECC313FCED13FDEE53
:1007CB0013FEEF13FFD8F122ECF0A3EDF0A3EEF044
:1007DB00A3EFF022A8828583F0D083D0821207F694
:1007EB001207F61207F61207F6E473E493A3C58318
:1007FB00C5F0C583C8C582C8F0A3C583C5F0C58342
:10080B00C8C582C822F8E0FBA3A3E0F925F0F0E508
:10081B0082158270021583E0FA38F022EBF0A3EA1E
:10082B00F0A3E9F022D083D082F8E4937012740124
:10083B0093700DA3A393F8740193F5828883E473EB
:10084B007402936860EFA3A3A380DFD083D082F8F8
:10085B00E4937012740193700DA3A393F874019336
:10086B00F5828883E473740293B5F006740393687E
:10087B0060E9A3A3A3A380D89000081207D390002C
:10088B000CE024FE605D14700302097B24FD600DF7
:10089B0014700302097B240660030209FFE4F5913F
:1008AB00759850438920438780F591438E10F591BD
:1008BB0053C4DF7B10FAF9F8900008E0FCA3E0FDCD
:1008CB00A3E0FEA3E0FF12070F90000DE0F8A3E0FA
:1008DB00F9A3E0FAA3E0FB12070FEFF404F58D4345
:1008EB00884022E4F59175985043878053C4F8F5FE
:1008FB009143C4207B10FAF9F8900008E0FCA3E0C8
:10090B00FDA3E0FEA3E0FF12070F90000DE0F8A39C
:10091B00E0F9A3E0FAA3E0FB12070FC3E49FFFE4A7
:10092B009EFE74019DFDE49CFC78081207C08FC6E7
:10093B00E47B10FAF9F8900008E0FCA3E0FDA3E0DB
:10094B00FEA3E0FF12070F90000DE0F8A3E0F9A360
:10095B00E0FAA3E0FB12070FC3E49FFFE49EFE74D3
:10096B00019DFDE49CFCEFE48FC5F59143C4082287
:10097B00E4F59175F85075C4887B10FAF9F890007E
:10098B0008E0FCA3E0FDA3E0FEA3E0FF12070F903D
:10099B00000DE0F8A3E0F9A3E0FAA3E0FB12070FC8
:1009AB00C3E49FFFE49EFE74019DFDE49CFC78086C
:1009BB001207C08FC6E47B10FAF9F8900008E0FC30
:1009CB00A3E0FDA3E0FEA3E0FF12070F90000DE0F4
:1009DB00F8A3E0F9A3E0FAA3E0FB12070FC3E49F2F
:1009EB00FFE49EFE74019DFDE49CFCEFE48FC5F5D6
:1009FB009143C40822EF146049146066147003021B
:100A0B000A8E147003020ACC24046003020B137FBA
:100A1B0002120CB67F02120026E4FF120CB6E4FFA2
:100A2B00120026E59730E003120EAEE4F591A2AF6B
:100A3B009204C2AF75C7AA75C7555397DFA204922C
:100A4B00AF227F02120CB67F021200267F01120C1E
:100A5B00B67F01120026E59720E003020B13120E5E
:100A6B00AE227F02120CB67F02120026E4F591A291
:100A7B00AF9204C2AF75C7AA75C75553977FA2042F
:100A8B0092AF227F03120CB67F03120026E597303C
:100A9B00E003120EAEE4F591A2AF9204C2AF75C79C
:100AAB00AA75C7555397DFA20492AFF591A2AF92E7
:100ABB0004C2AF75C7AA75C75553977FA20492AFEF
:100ACB00227F02120CB67F021200267F04120CB694
:100ADB007F04120026E59730E003120EAEE4F59189
:100AEB00A2AF9204C2AF75C7AA75C7555397DFA2C1
:100AFB000492AFF591A2AF9204C2AF75C7AA75C7A6
:100B0B005553977FA20492AF22900008ECF0A3ED0F
:100B1B00F0AB07AA06A31207DF00000000EA70176C
:100B2B00EB24FE701275910253FA0F43FAD07591B4
:100B3B000153B1F743B20875910153DF3F75910132
:100B4B0053DFF843DF0490000A1207DF0016E3605F
:100B5B0090000AE0FCA3E0FDA3E0FEA3E0FFC006CB
:100B6B00C007900008E0FEA3E0FFFBAA06E4F9F83B
:100B7B00D007D00612070F90000A1207D390000A75
:100B8B00E0FCA3E0FDA3E0FEA3E024FFFFEE34FFB7
:100B9B00FEED34FFFDEC34FFFC90000A1207D37519
:100BAB00910190000AE0FCA3E0FDA3E0FEA3E0FFAF
:100BBB0078081207C08FD190000AE0FCA3E0FDA3D8
:100BCB00E0FEA3E0FFE48FD9900019E0FCA3E0FD69
:100BDB00A3E0FEA3E04402FFEEEDEC900019120738
:100BEB00D322E4900000F0A3F012000EEF5401FFAB
:100BFB00E4FEFDFCFBFAF9F8C31207AF6003020C2D
:100C0B00B59000007403F0A374E8F0900011E0FCC1
:100C1B00A3E0FD7BE87A037F027E00120D73900048
:100C2B0019E0FCA3E0FDA3E0FEA3E05402FFE4FE09
:100C3B00FDFCEF60047F0180027F00EF60109000ED
:100C4B0012E004F07006900011E004F0800E9000AA
:100C5B0012E024FFF0900011E034FFF0900000E070
:100C6B00FEA3E0FF900011E0FAA3E0FBB5071EEA3C
:100C7B00B5061A900019E0FCA3E0FDA3E0FEA3E08B
:100C8B0054FDFFEEEDEC9000191207D322EB4A70E6
:100C9B0019900019E0FCA3E0FDA3E0FEA3E04402E1
:100CAB00FFEEEDEC9000191207D322EF146037140E
:100CBB006055146073147003020D54240460030216
:100CCB000D72E4F591A2AF9204C2AF75C7AA75C7B6
:100CDB0055439780A20492AFE596447F647F6003EF
:100CEB00020D7280F322E4F591A2AF9204C2AF75AC
:100CFB00C7AA75C755439740A20492AFE59644BF68
:100D0B0064BF706380F622E4F591A2AF9204C2AF88
:100D1B0075C7AA75C755439720A20492AFE59644B1
:100D2B00DF64DF704280F622E4F591A2AF9204C239
:100D3B00AF75C7AA75C755439710A20492AFE59636
:100D4B0044EF64EF702180F622E4F591A2AF920498
:100D5B00C2AF75C7AA75C755439708A20492AFE5F2
:100D6B009644F764F760F822900002EEF0A3EFF0E0
:100D7B00A3ECF0A3EDF0A3EAF0A3EBF0E4FDFC751C
:100D8B009101AFD1EF7F00FEADD9E42DFFEC3ECF4B
:100D9B002401FDE43FFCE4120229C004C005C00697
:100DAB00C007900006E0FCA3E0FDE4120229A804B2
:100DBB00A905AA06AB07D007D006D005D0041201AF
:100DCB0087C004C005C006C007900004E0FCA3E088
:100DDB00FDE4120229D003D002D001D00012007E14
:100DEB00120262AC06AD07900002E0FEA3E0FFEE3C
:100DFB00700BEF24FE7006ECF5D4EDF5DCE4F59109
:100E0B0043D140F59143D18022787FE4F6D8FD9011
:100E1B0000007FFF7E10E4F0A3DFFCDEFA75810A91
:100E2B00020E69021063E493A3F8E493A34003F664
:100E3B008001F208DFF48029E493A3F85407240C13
:100E4B00C8C333C4540F4420C8834004F4568001F4
:100E5B0046F6DFE4800B010204081020408090105E
:100E6B0002E47E019360BCA3FF543F30E509541F9D
:100E7B00FEE493A360010ECF54C025E060A840B8F8
:100E8B00E493A3FAE493A3F8E493A3C8C582C8CA76
:100E9B00C583CAF0A3C8C582C8CAC583CADFE9DE49
:100EAB00E780BEE4F591A2AF9204C2AF75C7AA75F5
:100EBB00C755439720A20492AFE59630E5FBE4F5C6
:100ECB0091A2AF9204C2AF75C7AA75C7555396FBD3
:100EDB00A20492AFF591A2AF9204C2AF75C7AA75E7
:100EEB00C7555396FDA20492AFA2AF9204C2AF7541
:100EFB00C7AA75C755759734A20492AF0022C0E0FC
:100F0B00C0F0C083C082C0D075D000C000C001C08B
:100F1B0002C003C004C005C006C007900013E0F573
:100F2B008CA3E0F58A5388DF12107DD007D006D052
:100F3B0005D004D003D002D001D000D0D0D082D0C5
:100F4B0083D0F0D0E032E4900008F0A3F0F5915399
:100F5B0089F0438901F591538EF790001374F8F0E3
:100F6B00A37430F0900013E0F58CA3E0F58A43A84E
:100F7B0002D2AF4388102275910253F60F43F660ED
:100F8B0075910153C2FD53C3FD90000C7402F0A385
:100F9B001207DF0001C2007F007E367D6E7C0112DE
:100FAB000883439802D200227F02120A0075910136
:100FBB00E4F5B1F5B2F5B3F5B4F5B5F5B6F5C2F5A3
:100FCB00C3F5B9F5BAF5BDF5BE759102F584F58596
:100FDB0022C0E0C083C082C09130F80AD2039000D7
:100FEB001EE59AF0C2F830F905200102C2F9D09142
:100FFB00D082D083D0E03241001300410014004472
:10100B000019000000004400150000000042001110
:10101B000000C100C101C10200900015E0FCA3E07B
:10102B00FDA3E0FEA3E02401FFE43EFEE43DFDE46E
:10103B003CFC9000151207D322C0E0C083C082C0D5
:10104B009130980BD20290001DE599F05398FED089
:10105B0091D082D083D0E032120FB3120F821200E4
:10106B00037D107C277F027E00120B14120F518020
:0C107B00FE2212102412000E120BED22B7
:00000001FF
